:100000000C942A000C9434000C9434000C943400AA
:100010000C9434000C9434000C9434000C94340090
:100020000C9434000C9434000C9434000C94340080
:100030000C9434000C9434000C9434000C94340070
:100040000C9434000C9434000C9434000C94340060
:100050000C94340011241FBECFE5D4E0DEBFCDBF29
:100060000E944D000C945D000C940000DC01CB015B
:10007000880F991FAA1FBB1F22E023BF0097A1056D
:10008000B10551F008B600FEFDCF28B7216028BFAA
:100090000197A109B109F2CF0895A79AAF9A68EE26
:1000A00073E080E090E00E943600AF9868EE73E065
:0E00B00080E090E00E943600F1CFF894FFCF80
:00000001FF
