:100000000C942A000C943F000C943F000C943F0089
:100010000C943F000C943F000C943F000C943F0064
:100020000C943F000C943F000C943F000C943F0054
:100030000C943F000C943F000C943F000C943F0044
:100040000C943F000C943F000C943F000C943F0034
:100050000C943F0011241FBECFE5D4E0DEBFCDBF1E
:1000600010E0A0E6B0E0E8E5FEE002C005900D92E9
:10007000AA3CB107D9F70E9436020C942A070C94C7
:1000800000009B01AC01AAE0B0E00E94270422E03E
:1000900025BD611571058105910559F028B72670B8
:1000A000E9F328B7266028BF6150710981099109D9
:1000B000F0CF0895FC019191992321F05D9BFECF33
:1000C0009CB9F9CF0895806487B9369A3699FECFE6
:1000D00084B195B108952F923F924F925F926F92A3
:1000E0007F928F929F92AF92BF92CF92DF92EF92C8
:1000F000FF920F931F93CF93DF93CDB7DEB7EF97A8
:100100000FB6F894DEBF0FBECDBFBC014D968F3445
:10011000910510F069E170E0072E000C880B990B37
:100120000E94FD022DEC3CEC4CE45EEB0E94890346
:1001300020E030E04BE653E40E94600220E030E033
:1001400040E450E40E9489030E94CC02162F072F3E
:10015000862F902F9FAF8EAF80E690E00E945A00CE
:100160000F931F938CE690E09F938F931F928CE3E5
:100170008F93CE0101965C019F938F930E9432046E
:10018000C5010E945A000FB6F894DEBF0FBECDBF66
:1001900005E010E0212C312C21011DAE0CBF68ECD4
:1001A00070E080E090E00E94410080E00E946300E7
:1001B0004C0182E00E946300AC019401DC010E94CA
:1001C00018046B017C013A017694679476946794E5
:1001D000A8EEB3E00E94180424EF33E040E050E0C2
:1001E0000E94F6038EAD9FAD8217930790F199ECB4
:1001F0006916710470F52C143D044E045F0418F464
:10020000160127010DAF1F928DAD8F93FF92EF92D4
:10021000DF92CF921F930F937F926F923F932F9312
:1002200089E790E09F938F931F928CE38F93BF9207
:10023000AF920E943204C5010E945A000B5F1F4F0B
:100240000FB6F894DEBF0FBECDBF0F3A110509F00F
:10025000A5CF8DADEF960FB6F894DEBF0FBECDBF24
:10026000DF91CF911F910F91FF90EF90DF90CF9092
:10027000BF90AF909F908F907F906F905F904F90C6
:100280003F902F9008952F923F924F925F926F92DE
:100290007F928F929F92AF92BF92CF92DF92EF9216
:1002A000FF920F931F93CF93DF93CDB7DEB7C45464
:1002B000D1090FB6F894DEBF0FBECDBF182F5B017A
:1002C00021965FAF4EAF2197CB014D968F349105AC
:1002D00010F4CB0102C089E190E001E0C12CD12CE7
:1002E0007601212C312C9C01990F440B550B25963E
:1002F0002CAF3DAF4EAF5FAF259721964EAD5FADB2
:100300002197241635060CF093C080E00E9463000C
:100310004C0181E00E94630082E00E946300AC0116
:100320009401DC010E9418042B013C01CA0196953E
:100330008795969587959EAF8DAFA8EEB3E00E9406
:10034000180424EF33E040E050E00E94F603490136
:10035000FF92EF92DF92CF927F926F925F924F92D5
:100360001F921F939EAD9F934DAD4F933F932F933D
:1003700080EA90E09F938F931F923CE33F9341E08C
:1003800050E04C0F5D1F5F934F930E943204CE01EB
:1003900001960E945A000FB6F894DEBF0FBECDBF83
:1003A0008AEF810F843A88F54C145D046E047F0453
:1003B00010F481E00827002331F125966CAD7DAD66
:1003C0008EAD9FAD25970E94FD022DEC3CEC4CE4D8
:1003D0005EEB0E94890320E030E04BE653E40E948C
:1003E000600220E030E040E450E40E9489030E9473
:1003F000CC028616970638F42DAD3EAD283C31056B
:1004000010F41F5F08C0115006C0C5010E946B00A8
:10041000182F260137011CBF68EC70E080E090E0E7
:100420000E9441003FEF231A330A7301620165CF36
:1004300085EC90E00E945A00CC5BDF4F0FB6F89439
:10044000DEBF0FBECDBFDF91CF911F910F91FF9007
:10045000EF90DF90CF90BF90AF909F908F907F9064
:100460006F905F904F903F902F9008958AB3886F60
:100470008ABB87B38F6187BB84B38FEF84BB81B3A3
:100480008D6981BB10BC89E189B988E18AB986E8A8
:1004900080BD86B1876886B983B7896683BF1CBE75
:1004A0001BBA18BA15BA12BA84E190E00E946B0028
:1004B00044EF51E064E170E00E944301F5CF5058F1
:1004C000BB27AA270E9477020C944F030E94410386
:1004D00038F00E94480320F039F49F3F19F426F4C5
:1004E0000C943E030EF4E095E7FB0C943803E92FDF
:1004F0000E94600358F3BA176207730784079507D1
:1005000020F079F4A6F50C9482030EF4E0950B2EFE
:10051000BA2FA02D0B01B90190010C01CA01A00155
:100520001124FF27591B99F0593F50F4503E68F1B0
:100530001A16F040A22F232F342F4427585FF3CFF1
:10054000469537952795A795F0405395C9F77EF4C2
:100550001F16BA0B620B730B840BBAF09150A1F00B
:10056000FF0FBB1F661F771F881FC2F70EC0BA0F91
:10057000621F731F841F48F4879577956795B79519
:10058000F7959E3F08F0B0CF9395880F08F0992714
:10059000EE0F9795879508950E94680388F09F57FE
:1005A00098F0B92F9927B751B0F0E1F0660F771F97
:1005B000881F991F1AF0BA95C9F714C0B13091F08D
:1005C0000E948203B1E008950C948203672F782F74
:1005D0008827B85F39F0B93FCCF386957795679552
:1005E000B395D9F73EF490958095709561957F4FBE
:1005F0008F4F9F4F0895E89409C097FB3EF4909564
:100600008095709561957F4F8F4F9F4F9923A9F0EB
:10061000F92F96E9BB279395F6958795779567957A
:10062000B795F111F8CFFAF4BB0F11F460FF1BC0BE
:100630006F5F7F4F8F4F9F4F16C0882311F096E951
:1006400011C0772321F09EE8872F762F05C06623FF
:1006500071F096E8862F70E060E02AF09A95660FB8
:10066000771F881FDAF7880F9695879597F9089571
:1006700097F99F6780E870E060E008959FEF80EC55
:10068000089500240A9416161706180609060895F8
:1006900000240A9412161306140605060895092E5E
:1006A0000394000C11F4882352F0BB0F40F4BF2BCD
:1006B00011F460FF04C06F5F7F4F8F4F9F4F08950D
:1006C00057FD9058440F551F59F05F3F71F0479503
:1006D000880F97FB991F61F09F3F79F087950895E8
:1006E000121613061406551FF2CF4695F1DF08C007
:1006F000161617061806991FF1CF86957105610524
:1007000008940895E894BB2766277727CB0197F9CB
:1007100008950E949C030C944F030E94410338F0FB
:100720000E94480320F0952311F00C9438030C9498
:100730003E0311240C9483030E94600370F3959F81
:10074000C1F3950F50E0551F629FF001729FBB27C8
:10075000F00DB11D639FAA27F00DB11DAA1F649F64
:100760006627B00DA11D661F829F2227B00DA11D17
:10077000621F739FB00DA11D621F839FA00D611D9D
:10078000221F749F3327A00D611D231F849F600DBE
:10079000211D822F762F6A2F11249F5750409AF0E7
:1007A000F1F088234AF0EE0FFF1FBB1F661F771F73
:1007B000881F91505040A9F79E3F510580F00C943E
:1007C00038030C9483035F3FE4F3983ED4F386959B
:1007D00077956795B795F795E7959F5FC1F7FE2BDE
:1007E000880F911D9695879597F90895A1E21A2E85
:1007F000AA1BBB1BFD010DC0AA1FBB1FEE1FFF1FC5
:10080000A217B307E407F50720F0A21BB30BE40B14
:10081000F50B661F771F881F991F1A9469F760955B
:100820007095809590959B01AC01BD01CF01089515
:10083000A29FB001B39FC001A39F700D811D112421
:10084000911DB29F700D811D1124911D08950E946C
:100850001804A59F900DB49F900DA49F800D911D2D
:1008600011240895AEE0B0E0E8E3F4E00C94010751
:100870000D891E898F89988D26E02C831A83098320
:1008800097FF02C080E090E801979E838D83AE01C0
:10089000455E5F4F698D7A8DCE0101960E9462049C
:1008A0004D815E8157FD0AC02F813885421753075D
:1008B0000CF49A01F801E20FF31F10822E96E4E087
:1008C0000C941D07ABE0B0E0E8E6F4E00C94F3060E
:1008D0006C017B018A01FC0117821682838181FFF2
:1008E000CCC1CE0101963C01F6019381F70193FD45
:1008F000859193FF81917F01882309F4BAC18532E4
:1009000039F493FD859193FF81917F01853229F41C
:10091000B60190E00E945906E7CF912C212C312C92
:10092000FFE1F315D8F08B3279F038F4803279F0AA
:100930008332A1F4232D20611DC08D3261F08033FC
:1009400069F4232D216016C0832D8260382EE32D9B
:10095000E4603E2E2AC0F32DF8601DC037FC2DC088
:1009600020ED280F2A3040F08E32B9F436FC81C1D8
:10097000232D2064322E19C036FE06C08AE0989ED0
:10098000200D1124922E11C0EAE02E9E200D11247C
:10099000222EF32DF0623F2E08C08C3621F4832DD9
:1009A0008068382E02C0883641F4F70193FD8591A6
:1009B00093FF81917F018111B3CF982F9F7D955433
:1009C000933028F40C5F1F4F9FE399830DC083364B
:1009D00031F0833771F0833509F059C021C0F80137
:1009E000808189830E5F1F4F88248394912C53014B
:1009F00013C02801F2E04F0E511CF801A080B18015
:100A000036FE03C0692D70E002C06FEF7FEFC501B5
:100A10000E944E064C018201F32DFF773F2E16C037
:100A2000280122E0420E511CF801A080B18036FE60
:100A300003C0692D70E002C06FEF7FEFC5010E9417
:100A400043064C01F32DF0683F2E820133FC1BC09E
:100A5000822D90E088169906B0F4B60180E290E00D
:100A60000E9459062A94F4CFF50137FC859137FE90
:100A700081915F01B60190E00E94590621102A94ED
:100A800021E0821A91088114910471F7E8C084363C
:100A900011F0893641F5F80137FE07C06081718198
:100AA000828193810C5F1F4F08C060817181072E86
:100AB000000C880B990B0E5F1F4FF32DFF763F2E16
:100AC00097FF09C090958095709561957F4F8F4FE6
:100AD0009F4FF0683F2E2AE030E0A3010E94950668
:100AE000882E861845C0853731F4232D2F7EB22EEF
:100AF0002AE030E025C0932D997FB92E8F36C1F0C2
:100B000018F4883579F0B5C0803719F0883721F0AE
:100B1000B0C0E92FE061BE2EB4FE0DC0FB2DF46025
:100B2000BF2E09C034FE0AC0292F2660B22E06C08F
:100B300028E030E005C020E130E002C020E132E0F2
:100B4000F801B7FE07C060817181828193810C5FDB
:100B50001F4F06C06081718180E090E00E5F1F4FE3
:100B6000A3010E949506882E8618FB2DFF773F2E45
:100B700036FE0DC0232D2E7FA22E891458F434FE8C
:100B80000BC032FC09C0832D8E7EA82E05C0B82C68
:100B9000A32C03C0B82C01C0B92CA4FE0FC0FE01C9
:100BA000E80DF11D8081803321F49A2D997EA92EC4
:100BB00009C0A2FE06C0B394B39404C08A2D8678FF
:100BC00009F0B394A3FC11C0A0FE06C0B21488F4CF
:100BD000280C922C9B180EC0B21460F4B60180E26F
:100BE00090E00E945906B394F7CFB21418F42B1872
:100BF00002C0982C212CA4FE10C0B60180E390E026
:100C00000E945906A2FE17C0A1FC03C088E790E02D
:100C100002C088E590E0B6010CC08A2D867859F0B4
:100C2000A1FE02C08BE201C080E2A7FC8DE2B6010A
:100C300090E00E945906891438F4B60180E390E0F0
:100C40000E9459069A94F7CF8A94F301E80DF11D9A
:100C50008081B60190E00E9459068110F5CF2220D4
:100C600009F442CEB60180E290E00E9459062A942F
:100C7000F6CFF6018681978102C08FEF9FEF2B960A
:100C8000E2E10C940F07FC010590615070400110E7
:100C9000D8F7809590958E0F9F1F0895FC016150A5
:100CA000704001900110D8F7809590958E0F9F1F8E
:100CB00008950F931F93CF93DF93FB01238121FDB1
:100CC00003C08FEF9FEF2CC022FF16C046815781D3
:100CD000248135814217530744F4A081B1819D01DD
:100CE0002F5F3F4F318320838C93268137812F5F85
:100CF0003F4F3783268314C08B01EC01FB01008436
:100D0000F185E02D0995892BE1F6D80116968D9194
:100D10009C911797019617969C938E931697CE01E8
:100D2000DF91CF911F910F910895FA01AA272830E2
:100D300051F1203181F1E8946F936E7F6E5F7F4FA8
:100D40008F4F9F4FAF4FB1E03ED0B4E03CD0670F24
:100D5000781F891F9A1FA11D680F791F8A1F911D77
:100D6000A11D6A0F711D811D911DA11D20D009F4C7
:100D700068943F912AE0269F11243019305D319309
:100D8000DEF6CF010895462F4770405D4193B3E0F2
:100D90000FD0C9F7F6CF462F4F70405D4A3318F099
:100DA000495D31FD4052419302D0A9F7EACFB4E04A
:100DB000A6959795879577956795BA95C9F7009702
:100DC0006105710508959B01AC010A2E06945795A3
:100DD000479537952795BA95C9F7620F731F841FFA
:100DE000951FA01D08952F923F924F925F926F9290
:100DF0007F928F929F92AF92BF92CF92DF92EF92AB
:100E0000FF920F931F93CF93DF93CDB7DEB7CA1B2B
:100E1000DB0B0FB6F894DEBF0FBECDBF09942A8856
:100E2000398848885F846E847D848C849B84AA84FE
:100E3000B984C884DF80EE80FD800C811B81AA818B
:100E4000B981CE0FD11D0FB6F894DEBF0FBECDBF56
:080E5000ED010895F894FFCFB5
:100E580066696E644D505028293B0A0056426174F9
:100E6800744D61783D25640A0056426174743D25CD
:100E7800640949536F6C61723D256409443D2564DA
:100E880009506C3D256C75094D50503D25640A008C
:100E980056426174743D256409493D256409443D01
:100EA800256409506C3D256C7509506C4F6C643D88
:0A0EB800256C750A006279650A00D6
:00000001FF
