:100000000C9438000C9455000C9455000C94550039
:100010000C9455000C9455000C9455000C9455000C
:100020000C9455000C9455000C9455000C945500FC
:100030000C9455000C9455000C9455000C945500EC
:100040000C9455000C9455000C9455000C945500DC
:100050000C945500F100F300F500F700F900FB00E7
:10006000FD002501270129012B012D012F0131015F
:1000700011241FBECFE5D4E0DEBFCDBF11E0A0E666
:10008000B0E0E2EDFBE002C005900D92A831B107AF
:10009000D9F721E0A8E1B1E001C01D92AC31B2076F
:1000A000E1F70E94A6020C94E7050C940000DC0125
:1000B000CB01880F991FAA1FBB1F22E023BF009707
:1000C000A105B10551F008B600FEFDCF28B72160AB
:1000D00028BF0197A109B109F2CF0895FC019191C0
:1000E000992321F05D9BFECF9CB9F9CF0895DC01E7
:1000F000CB01880F991FAA1FBB1F22E023BF0097C7
:10010000A105B10551F008B600FEFDCF28B721606A
:1001100028BF0197A109B109F2CF0895FC0191917F
:10012000992321F05D9BFECF9CB9F9CF0895AF9242
:10013000BF92DF92EF92FF920F931F93CF93DF93C3
:10014000CDB7DEB7EC970FB6F894DEBF0FBECDBFCC
:100150007C018B01D42E1F924F931F936F93FF92BC
:100160008F938BE990E09F938F931F928CE38F93F3
:10017000CE0101965C019F938F930E94EF02C5010F
:100180000E948E000FB6F894DEBF0FBECDBF85B3C0
:10019000DD20A9F1807885BB8BB387788BBB88B3D2
:1001A000887E88BB91E0E916F10479F024F4EF2809
:1001B00079F4C09A0DC092E0E916F10441F083E0B1
:1001C000E816F10429F4C49A03C0C29A01C0C19A86
:1001D0000730110508F046C0F801E65DFF4F0C94AA
:1001E000E202AE9A3FC0AD9A3DC0AC9A3BC0AB9A1A
:1001F00039C0AA9A37C0A99A35C0A89A33C08F6768
:1002000085BB8BB387788BBB88B3887E88BB91E036
:10021000E916F10479F024F4EF2879F4DE9A0DC0A0
:1002200092E0E916F10441F083E0E816F10429F4C4
:10023000DB9A03C0DC9A01C0DD9A0730110590F407
:10024000F801EF5CFF4F0C94E202AE980BC0AD9842
:1002500009C0AC9807C0AB9805C0AA9803C0A9987C
:1002600001C0A89864E170E080E090E00E9477000F
:10027000DF9A65E070E080E090E00E947700DF9810
:1002800085B3807885BB8BB387788BBB88B3887E3A
:1002900088BB64E670E080E090E00E947700EC9616
:1002A0000FB6F894DEBF0FBECDBFDF91CF911F9187
:1002B0000F91FF90EF90DF90BF90AF9008950F9354
:1002C0001F93CF93DF9300E010E0C0E0D0E040E068
:1002D000BE01C8010E9497002196C730D105B9F729
:1002E0000F5F1F4F0430110581F784E0E8E1F1E072
:1002F000DF011D928A95E9F7DF91CF911F910F9150
:1003000008952F923F924F925F926F927F928F92B9
:100310009F92AF92BF92CF92DF92EF92FF920F9394
:100320001F93CF93DF93CDB7DEB7C554D1090FB676
:10033000F894DEBF0FBECDBF3E0122E4620E711CF9
:1003400024E0D3011D922A95E9F7AC01475F5F4F86
:100350009B01275F3F4F8E01035C1F4F4D365105B8
:1003600070F02D36310530F064EC70E0C8010E9469
:10037000E8022AC07F936F9389EC90E007C02D3686
:10038000310570F09F938F938FEC90E09F938F9344
:100390001F9285E08F931F930F930E94EF020FC06F
:1003A0007F936F939F938F9385ED90E09F938F93AF
:1003B0001F9285E08F931F930F930E94EF020FB659
:1003C000F894DEBF0FBECDBF1F930F938CED90E06E
:1003D0009F938F931F928CE38F93FE0131967F0141
:1003E000FF93EF930E94EF02C7010E948E00280145
:1003F000530188E1882E81E0982E0FB6F894DEBF75
:100400000FBECDBF00E010E094E0292E91E0392E20
:10041000D201ED912D01ED52ED3028F4F0E0E05ADB
:10042000FF4F808101C080E0F5018083D4018C9171
:100430001F928F931F930F93EDEEF0E0FF93EF93D6
:100440001F928CE38F93FF92EF920E94EF02C701FD
:100450000E948E00D5018C911F928F931F930F9352
:100460003F922F921F92BCE3BF93FF92EF920E94A4
:10047000EF02C7010E948E000FB6F894DEBF0FBED8
:10048000CDBFC12CD12CD5014C9150E021E030E002
:100490000C2C02C0220F331F0A94E2F7422353238D
:1004A000F401808190E0822393238417950714F44C
:1004B00041E004C0481759072CF440E0B601C801D8
:1004C0000E949700FFEFCF1ADF0A27E0C216D1047F
:1004D000D1F60F5F1F4F8FEFA81AB80A9FEF891A46
:1004E000990A0430110509F093CF8BEE90E00E9439
:1004F0008E00F30180819181A281B38180931801E4
:1005000090931901A0931A01B0931B0168EE73E058
:1005100080E090E00E947700CB5BDF4F0FB6F8944D
:10052000DEBF0FBECDBFDF91CF911F910F91FF9026
:10053000EF90DF90CF90BF90AF909F908F907F9083
:100540006F905F904F903F902F90089510BC89E17D
:1005500089B988E18AB986E880BD8AB3886F8ABB89
:1005600087B3876187BB84B38FEF84BB81B381BBC3
:100570001BBA18BA15BA12BAAF980E945F018DE67D
:1005800090E00E946E0088E790E00E946E00AF9AB3
:100590000E945F0160ED77E080E090E00E945700EC
:1005A0008AE890E00E946E00AF9868E570E088E508
:1005B00090E00E94810160ED77E080E090E00E9491
:1005C0005700DDCFEE0FFF1F0590F491E02D099449
:1005D000FB01DC0101900D920020E1F70895AEE0EF
:1005E000B0E0E5EFF2E00C94BE050D891E898F891D
:1005F000988D26E02C831A83098397FF02C080E040
:1006000090E801979E838D83AE01455E5F4F698DB3
:100610007A8DCE0101960E941F034D815E8157FDA8
:100620000AC02F813885421753070CF49A01F8014C
:10063000E20FF31F10822E96E4E00C94DA05ABE093
:10064000B0E0E5E2F3E00C94B0056C017B018A01B7
:10065000FC0117821682838181FFCCC1CE010196F5
:100660003C01F6019381F70193FD859193FF819100
:100670007F01882309F4BAC1853239F493FD85914D
:1006800093FF81917F01853229F4B60190E00E94A9
:100690001605E7CF912C212C312CFFE1F315D8F072
:1006A0008B3279F038F4803279F08332A1F4232D43
:1006B00020611DC08D3261F0803369F4232D2160EB
:1006C00016C0832D8260382EE32DE4603E2E2AC0B2
:1006D000F32DF8601DC037FC2DC020ED280F2A3007
:1006E00040F08E32B9F436FC81C1232D2064322EC5
:1006F00019C036FE06C08AE0989E200D1124922E65
:1007000011C0EAE02E9E200D1124222EF32DF0625E
:100710003F2E08C08C3621F4832D8068382E02C00D
:10072000883641F4F70193FD859193FF81917F0114
:100730008111B3CF982F9F7D9554933028F40C5F8F
:100740001F4F9FE399830DC0833631F0833771F0DB
:10075000833509F059C021C0F801808189830E5F7B
:100760001F4F88248394912C530113C02801F2E079
:100770004F0E511CF801A080B18036FE03C0692DD8
:1007800070E002C06FEF7FEFC5010E940B054C01C6
:100790008201F32DFF773F2E16C0280122E0420E82
:1007A000511CF801A080B18036FE03C0692D70E0B5
:1007B00002C06FEF7FEFC5010E9400054C01F32DD1
:1007C000F0683F2E820133FC1BC0822D90E088161A
:1007D0009906B0F4B60180E290E00E9416052A94D2
:1007E000F4CFF50137FC859137FE81915F01B601A9
:1007F00090E00E94160521102A9421E0821A9108A7
:100800008114910471F7E8C0843611F0893641F5FE
:10081000F80137FE07C060817181828193810C5F8E
:100820001F4F08C060817181072E000C880B990B47
:100830000E5F1F4FF32DFF763F2E97FF09C0909557
:100840008095709561957F4F8F4F9F4FF0683F2E39
:100850002AE030E0A3010E945205882E861845C088
:10086000853731F4232D2F7EB22E2AE030E025C0CB
:10087000932D997FB92E8F36C1F018F4883579F011
:10088000B5C0803719F0883721F0B0C0E92FE0619A
:10089000BE2EB4FE0DC0FB2DF460BF2E09C034FE89
:1008A0000AC0292F2660B22E06C028E030E005C01D
:1008B00020E130E002C020E132E0F801B7FE07C0DD
:1008C00060817181828193810C5F1F4F06C06081BE
:1008D000718180E090E00E5F1F4FA3010E945205DE
:1008E000882E8618FB2DFF773F2E36FE0DC0232D58
:1008F0002E7FA22E891458F434FE0BC032FC09C09E
:10090000832D8E7EA82E05C0B82CA32C03C0B82C36
:1009100001C0B92CA4FE0FC0FE01E80DF11D8081BD
:10092000803321F49A2D997EA92E09C0A2FE06C01B
:10093000B394B39404C08A2D867809F0B394A3FCD1
:1009400011C0A0FE06C0B21488F4280C922C9B188B
:100950000EC0B21460F4B60180E290E00E94160569
:10096000B394F7CFB21418F42B1802C0982C212C92
:10097000A4FE10C0B60180E390E00E941605A2FE1E
:1009800017C0A1FC03C088E790E002C088E590E0B2
:10099000B6010CC08A2D867859F0A1FE02C08BE208
:1009A00001C080E2A7FC8DE2B60190E00E9416052E
:1009B000891438F4B60180E390E00E9416059A94F9
:1009C000F7CF8A94F301E80DF11D8081B60190E024
:1009D0000E9416058110F5CF222009F442CEB601FF
:1009E00080E290E00E9416052A94F6CFF6018681F7
:1009F000978102C08FEF9FEF2B96E2E10C94CC051C
:100A0000FC010590615070400110D8F780959095D9
:100A10008E0F9F1F0895FC016150704001900110DE
:100A2000D8F7809590958E0F9F1F08950F931F9371
:100A3000CF93DF93FB01238121FD03C08FEF9FEF55
:100A40002CC022FF16C04681578124813581421770
:100A5000530744F4A081B1819D012F5F3F4F318343
:100A600020838C93268137812F5F3F4F37832683E6
:100A700014C08B01EC01FB010084F185E02D099588
:100A8000892BE1F6D80116968D919C9117970196C6
:100A900017969C938E931697CE01DF91CF911F915D
:100AA0000F910895FA01AA27283051F1203181F1E0
:100AB000E8946F936E7F6E5F7F4F8F4F9F4FAF4F66
:100AC000B1E03ED0B4E03CD0670F781F891F9A1F79
:100AD000A11D680F791F8A1F911DA11D6A0F711D2D
:100AE000811D911DA11D20D009F468943F912AE039
:100AF000269F11243019305D3193DEF6CF01089521
:100B0000462F4770405D4193B3E00FD0C9F7F6CF51
:100B1000462F4F70405D4A3318F0495D31FD405219
:100B2000419302D0A9F7EACFB4E0A69597958795AF
:100B300077956795BA95C9F700976105710508958E
:100B40009B01AC010A2E069457954795379527953A
:100B5000BA95C9F7620F731F841F951FA01D0895D2
:100B60002F923F924F925F926F927F928F929F92BD
:100B7000AF92BF92CF92DF92EF92FF920F931F93AB
:100B8000CF93DF93CDB7DEB7CA1BDB0B0FB6F8945C
:100B9000DEBF0FBECDBF09942A88398848885F849C
:100BA0006E847D848C849B84AA84B984C884DF800D
:100BB000EE80FD800C811B81AA81B981CE0FD11DF1
:100BC0000FB6F894DEBF0FBECDBFED010895F894C7
:020BD000FFCF55
:100BD2004000003F065B4F666D7D077F6F73746157
:100BE20079416C6976650A00636C6561722064699B
:100BF20073706C61792E2E2E0A006F70656E206400
:100C02006973706C61792E2E2E0A007365745069B7
:100C12006E7328292C2064696769743A25642C2034
:100C22007365673A25642C2073686F775365673A5A
:100C320025640A002D2D2D2D002D2D253264002531
:100C420032642D2D0025326425326400636861729E
:100C52004275666665723A222573220A00736567D9
:100C62006D656E74426974734F6C645B25645D3AA2
:100C720025640A007365676D656E74426974735BFF
:080C820025645D3A25640A00B7
:00000001FF
