:100000000C942A000C9447000C9447000C94470071
:100010000C9447000C9447000C9447000C94470044
:100020000C9447000C9447000C9447000C94470034
:100030000C9447000C9447000C9447000C94470024
:100040000C9447000C9447000C9447000C94470014
:100050000C94470011241FBECFE5D4E0DEBFCDBF16
:1000600010E0A0E6B0E0E2E8FBE002C005900D92EF
:10007000A239B107D9F720E0A2E9B0E001C01D9292
:10008000A339B207E1F70E9448020C94BF050C9413
:100090000000FC019191992321F05D9BFECF9CB95A
:1000A000F9CF0895CF93DF9300D000D000D0CDB723
:1000B000DEB721B381E090E00090920002C0880F8B
:1000C000991F0A94E2F7822B81BB8BED90E09E830F
:1000D0008D838D819E81892B21F08D819E81019759
:1000E000F6CF21B381E090E00090920002C0880F2B
:1000F000991F0A94E2F78095822381BB8FE090E0FC
:100100009C838B838B819C81892B21F08B819C81AB
:100110000197F6CF80B390E00090920002C09595D1
:1001200087950A94E2F78170992721E082278170F0
:100130002BED30E03A83298329813A81232B29F062
:1001400029813A8121503109F5CF26960FB6F894CE
:10015000DEBF0FBECDBFDF91CF910895CF93DF9368
:10016000CDB7DEB728970FB6F894DEBF0FBECDBF70
:1001700020E030E090E041E050E0AFE0B0E0E0911E
:100180009200BC01022E02C0759567950A94E2F7B1
:10019000F1B360FF3CC0BA0101C0660FEA95EAF70F
:1001A0006F2B61BB18861F826F817885672B39F0B2
:1001B0006F8178856150710978876F83F5CF71B34E
:1001C000FA010090920002C0EE0FFF1F0A94E2F7BE
:1001D0006E2F6095672361BBBE83AD836D817E8189
:1001E000672B39F06D817E81615071097E836D834B
:1001F000F5CF2F5F3F4F2830310509F628960FB60F
:10020000F894DEBF0FBECDBFDF91CF910895BA0144
:1002100001C0660FEA95EAF76F2B61BBBC83AB8325
:100220006B817C81672B39F06B817C816150710916
:100230007C836B83F5CF71B3FA010090920002C00A
:10024000EE0FFF1F0A94E2F76E2F6095672361BBE4
:100250001A82198269817A81672B59F269817A81C0
:10026000615071097A836983F5CFCF93DF9300D012
:1002700000D000D0CDB7DEB721B381E090E0009090
:10028000920002C0880F991F0A94E2F7822B81BB6B
:100290001E821D828D819E81892B31F08D819E81F0
:1002A00001979E838D83F6CF91B341E050E09A0190
:1002B0000090920002C0220F331F0A94E2F7822FAF
:1002C0008095892381BB5C834B838B819C81892BA7
:1002D00031F08B819C8101979C838B83F6CF80B317
:1002E00021E030E00090920002C0220F331F0A94F8
:1002F000E2F790E02823392381E0232B09F480E002
:100300002DE030E03A83298329813A81232B29F09B
:1003100029813A8121503109F5CF26960FB6F894FC
:10032000DEBF0FBECDBFDF91CF9108958F929F9218
:10033000AF92BF92CF92DF92EF92FF920F931F93F3
:10034000CF93DF93CDB7DEB72B970FB6F894DEBF10
:100350000FBECDBF809392008E010F5F1F4F89E0CB
:10036000F80111928A95E9F70E945200882309F456
:1003700077C08CEC0E94AE0084E40E94AE000E9424
:1003800035018823E1F30E945200882309F46AC0F2
:100390008CEC0E94AE008EEB0E94AE004E01FAE0A3
:1003A0008F0E911C7801AA24A394B12CE814F904AF
:1003B00091F1C12CD12C0E943501882351F0F70115
:1003C0002081C5010C2C01C0880F0A94EAF7822B0A
:1003D0000AC0C5010C2C01C0880F0A94EAF7809569
:1003E000F7019081892380831B861A868A859B85E5
:1003F000892B31F08A859B8501979B878A87F6CF69
:10040000FFEFCF1ADF0A38E0C316D104A1F68FEF51
:10041000E81AF80ACBCFAE01475F5F4F80E03CE8B7
:10042000F80121918F0198E0682F6227869560FD81
:10043000832726959150C1F74017510789F7998571
:10044000981312C029818A81F0E18F9FC001112485
:10045000922F92959F70892B23FF07C08F5F05C055
:100460008BE903C080E001C08CE92B960FB6F894AD
:10047000DEBF0FBECDBFDF91CF911F910F91FF90D7
:10048000EF90DF90CF90BF90AF909F908F900895A6
:10049000CF93DF93CDB7DEB7C856D1090FB6F89426
:1004A000DEBF0FBECDBF10BC89E189B988E18AB932
:1004B00086E880BD8AB38ABB87B387BBA79A81B31E
:1004C00081BB1BBA18BA15BA12BA9598969884E6E9
:1004D000B82E8E010F5F1F4F92E5E92E94E0F92EA2
:1004E00020E6C22E20E0D22E33E6A32EF8018B2D7B
:1004F00011928A95E9F786E00E949601982EA996B6
:10050000FFAEEEAEA997A9968EAD9FADA997892BA8
:1005100051F0A9968EAD9FADA9970197A9969FAF6F
:100520008EAFA997F0CF85E00E949601282F082E64
:10053000000C330B3F938F93892D092C000C990BE2
:100540009F939F92DF92CF921F92AF921F930F9330
:100550000E94C702C8010E944900A796FFAEEEAEF6
:10056000A7970FB6F894DEBF0FBECDBFA7968EAD8E
:100570009FADA797892B09F4B9CFA7968EAD9FADF4
:10058000A7970197A7969FAF8EAFA797EFCFAEE043
:10059000B0E0EDECF2E00C9496050D891E898F8990
:1005A000988D26E02C831A83098397FF02C080E090
:1005B00090E801979E838D83AE01455E5F4F698D04
:1005C0007A8DCE0101960E94F7024D815E8157FD22
:1005D0000AC02F813885421753070CF49A01F8019D
:1005E000E20FF31F10822E96E4E00C94B205ABE00C
:1005F000B0E0EDEFF2E00C9488056C017B018A011C
:10060000FC0117821682838181FFCCC1CE01019645
:100610003C01F6019381F70193FD859193FF819150
:100620007F01882309F4BAC1853239F493FD85919D
:1006300093FF81917F01853229F4B60190E00E94F9
:10064000EE04E7CF912C212C312CFFE1F315D8F0EB
:100650008B3279F038F4803279F08332A1F4232D93
:1006600020611DC08D3261F0803369F4232D21603B
:1006700016C0832D8260382EE32DE4603E2E2AC002
:10068000F32DF8601DC037FC2DC020ED280F2A3057
:1006900040F08E32B9F436FC81C1232D2064322E15
:1006A00019C036FE06C08AE0989E200D1124922EB5
:1006B00011C0EAE02E9E200D1124222EF32DF062AF
:1006C0003F2E08C08C3621F4832D8068382E02C05E
:1006D000883641F4F70193FD859193FF81917F0165
:1006E0008111B3CF982F9F7D9554933028F40C5FE0
:1006F0001F4F9FE399830DC0833631F0833771F02C
:10070000833509F059C021C0F801808189830E5FCB
:100710001F4F88248394912C530113C02801F2E0C9
:100720004F0E511CF801A080B18036FE03C0692D28
:1007300070E002C06FEF7FEFC5010E94E3044C013F
:100740008201F32DFF773F2E16C0280122E0420ED2
:10075000511CF801A080B18036FE03C0692D70E005
:1007600002C06FEF7FEFC5010E94D8044C01F32D4A
:10077000F0683F2E820133FC1BC0822D90E088166A
:100780009906B0F4B60180E290E00E94EE042A944B
:10079000F4CFF50137FC859137FE81915F01B601F9
:1007A00090E00E94EE0421102A9421E0821A910820
:1007B0008114910471F7E8C0843611F0893641F54F
:1007C000F80137FE07C060817181828193810C5FDF
:1007D0001F4F08C060817181072E000C880B990B98
:1007E0000E5F1F4FF32DFF763F2E97FF09C09095A8
:1007F0008095709561957F4F8F4F9F4FF0683F2E8A
:100800002AE030E0A3010E942A05882E861845C000
:10081000853731F4232D2F7EB22E2AE030E025C01B
:10082000932D997FB92E8F36C1F018F4883579F061
:10083000B5C0803719F0883721F0B0C0E92FE061EA
:10084000BE2EB4FE0DC0FB2DF460BF2E09C034FED9
:100850000AC0292F2660B22E06C028E030E005C06D
:1008600020E130E002C020E132E0F801B7FE07C02D
:1008700060817181828193810C5F1F4F06C060810E
:10088000718180E090E00E5F1F4FA3010E942A0556
:10089000882E8618FB2DFF773F2E36FE0DC0232DA8
:1008A0002E7FA22E891458F434FE0BC032FC09C0EE
:1008B000832D8E7EA82E05C0B82CA32C03C0B82C87
:1008C00001C0B92CA4FE0FC0FE01E80DF11D80810E
:1008D000803321F49A2D997EA92E09C0A2FE06C06C
:1008E000B394B39404C08A2D867809F0B394A3FC22
:1008F00011C0A0FE06C0B21488F4280C922C9B18DC
:100900000EC0B21460F4B60180E290E00E94EE04E2
:10091000B394F7CFB21418F42B1802C0982C212CE2
:10092000A4FE10C0B60180E390E00E94EE04A2FE97
:1009300017C0A1FC03C088E790E002C088E590E002
:10094000B6010CC08A2D867859F0A1FE02C08BE258
:1009500001C080E2A7FC8DE2B60190E00E94EE04A7
:10096000891438F4B60180E390E00E94EE049A9472
:10097000F7CF8A94F301E80DF11D8081B60190E074
:100980000E94EE048110F5CF222009F442CEB60178
:1009900080E290E00E94EE042A94F6CFF601868170
:1009A000978102C08FEF9FEF2B96E2E10C94A40594
:1009B000FC010590615070400110D8F7809590952A
:1009C0008E0F9F1F0895FC0161507040019001102F
:1009D000D8F7809590958E0F9F1F08950F931F93C2
:1009E000CF93DF93FB01238121FD03C08FEF9FEFA6
:1009F0002CC022FF16C046815781248135814217C1
:100A0000530744F4A081B1819D012F5F3F4F318393
:100A100020838C93268137812F5F3F4F3783268336
:100A200014C08B01EC01FB010084F185E02D0995D8
:100A3000892BE1F6D80116968D919C911797019616
:100A400017969C938E931697CE01DF91CF911F91AD
:100A50000F910895FA01AA27283051F1203181F130
:100A6000E8946F936E7F6E5F7F4F8F4F9F4FAF4FB6
:100A7000B1E03ED0B4E03CD0670F781F891F9A1FC9
:100A8000A11D680F791F8A1F911DA11D6A0F711D7D
:100A9000811D911DA11D20D009F468943F912AE089
:100AA000269F11243019305D3193DEF6CF01089571
:100AB000462F4770405D4193B3E00FD0C9F7F6CFA2
:100AC000462F4F70405D4A3318F0495D31FD40526A
:100AD000419302D0A9F7EACFB4E0A6959795879500
:100AE00077956795BA95C9F70097610571050895DF
:100AF0009B01AC010A2E069457954795379527958B
:100B0000BA95C9F7620F731F841F951FA01D089522
:100B10002F923F924F925F926F927F928F929F920D
:100B2000AF92BF92CF92DF92EF92FF920F931F93FB
:100B3000CF93DF93CDB7DEB7CA1BDB0B0FB6F894AC
:100B4000DEBF0FBECDBF09942A88398848885F84EC
:100B50006E847D848C849B84AA84B984C884DF805D
:100B6000EE80FD800C811B81AA81B981CE0FD11D41
:100B70000FB6F894DEBF0FBECDBFED010895F89417
:020B8000FFCFA5
:100B82005761737365722054656D70657261747517
:100B920072203D2564646567094C7566742054654E
:100BA2006D70657261747572203D25646465670AB3
:020BB200000041
:00000001FF
