:100000000C9438000C9455000C9455000C94550039
:100010000C9455000C9455000C9455000C9455000C
:100020000C9473000C9455000C9455000C945500DE
:100030000C9455000C9455000C9455000C945500EC
:100040000C9455000C9455000C9455000C945500DC
:100050000C945500BB02BD02BF02C102C302C5021F
:10006000C702EB02ED02EF02F102F302F502F70222
:1000700011241FBECFE5D4E0DEBFCDBF10E0A0E667
:10008000B0E0EEE3F6E102C005900D92A83BB107A7
:10009000D9F720E0A8EBB0E001C01D92A43CB20764
:1000A000E1F70E94A3050C941D0B0C94000022E0C4
:1000B00025BD611571058105910559F008B606FE4B
:1000C000FDCF28B7206428BF6150710981099109CB
:1000D000F0CF0895FC019191992321F05D9BFECF13
:1000E0009CB9F9CF08951F920F920FB60F92112469
:1000F0008F939F938091B8009091B90001968E31B3
:10010000910528F49093B9008093B80007C010922D
:10011000B9001092B80081E0809360009F918F91A8
:100120000F900FBE0F901F901895CF93DF9300D0C4
:1001300000D000D0CDB7DEB721B381E090E00090D1
:10014000C30002C0880F991F0A94E2F7822B81BB7B
:100150008BED90E09E838D838D819E81892B21F094
:100160008D819E810197F6CF21B381E090E00090D0
:10017000C30002C0880F991F0A94E2F7809582237A
:1001800081BB8FE090E09C838B838B819C81892B4A
:1001900021F08B819C810197F6CF80B390E0009095
:1001A000C30002C0959587950A94E2F7817099275C
:1001B00021E0822781702BED30E03A832983298169
:1001C0003A81232B29F029813A8121503109F5CF39
:1001D00026960FB6F894DEBF0FBECDBFDF91CF914C
:1001E0000895CF93DF93CDB7DEB728970FB6F89475
:1001F000DEBF0FBECDBF20E030E090E041E050E038
:10020000AFE0B0E0E091C300BC01022E02C07595E2
:1002100067950A94E2F7F1B360FF3CC0BA0101C0F0
:10022000660FEA95EAF76F2B61BB18861F826F8114
:100230007885672B39F06F817885615071097887EF
:100240006F83F5CF71B3FA010090C30002C0EE0FC7
:10025000FF1F0A94E2F76E2F6095672361BBBE8390
:10026000AD836D817E81672B39F06D817E81615018
:1002700071097E836D83F5CF2F5F3F4F28303105A5
:1002800009F628960FB6F894DEBF0FBECDBFDF91FA
:10029000CF910895BA0101C0660FEA95EAF76F2B76
:1002A00061BBBC83AB836B817C81672B39F06B8135
:1002B0007C81615071097C836B83F5CF71B3FA0146
:1002C0000090C30002C0EE0FFF1F0A94E2F76E2FEA
:1002D0006095672361BB1A82198269817A81672BD5
:1002E00059F269817A81615071097A836983F5CF06
:1002F000CF93DF9300D000D000D0CDB7DEB721B3CD
:1003000081E090E00090C30002C0880F991F0A941A
:10031000E2F7822B81BB1E821D828D819E81892BFB
:1003200031F08D819E8101979E838D83F6CF91B3AD
:1003300041E050E09A010090C30002C0220F331F39
:100340000A94E2F7822F8095892381BB5C834B83DB
:100350008B819C81892B31F08B819C8101979C83BF
:100360008B83F6CF80B321E030E00090C30002C061
:10037000220F331F0A94E2F790E02823392381E00B
:10038000232B09F480E02DE030E03A832983298192
:100390003A81232B29F029813A8121503109F5CF67
:1003A00026960FB6F894DEBF0FBECDBFDF91CF917A
:1003B00008958F929F92AF92BF92CF92DF92EF9269
:1003C000FF920F931F93CF93DF93CDB7DEB72B9799
:1003D0000FB6F894DEBF0FBECDBF8093C3008E0171
:1003E0000F5F1F4F89E0F80111928A95E9F70E948B
:1003F0009500882309F477C08CEC0E94F10084E416
:100400000E94F1000E9478018823E1F30E94950088
:10041000882309F46AC08CEC0E94F1008EEB0E94E4
:10042000F1004E01FAE08F0E911C7801AA24A394EA
:10043000B12CE814F90491F1C12CD12C0E9478015F
:10044000882351F0F7012081C5010C2C01C0880FD1
:100450000A94EAF7822B0AC0C5010C2C01C0880F50
:100460000A94EAF78095F7019081892380831B869F
:100470001A868A859B85892B31F08A859B85019711
:100480009B878A87F6CFFFEFCF1ADF0A38E0C316C3
:10049000D104A1F68FEFE81AF80ACBCFAE01475F7F
:1004A0005F4F80E03CE8F80121918F0198E0682FD0
:1004B0006227869560FD832726959150C1F74017E6
:1004C000510789F79985981312C029818A81F0E133
:1004D0008F9FC0011124922F92959F70892B23FF2B
:1004E00007C08F5F05C08BE903C080E001C08CE9C5
:1004F0002B960FB6F894DEBF0FBECDBFDF91CF9124
:100500001F910F91FF90EF90DF90CF90BF90AF9031
:100510009F908F9008952091BA003091BB002F5F7B
:100520003F4F3093BB002093BA0025B3442389F199
:10053000207825BB2BB327782BBB28B3287E28BB7C
:100540008130910561F024F4892B61F4C09A0AC0CE
:100550008230910531F0039729F4C49A03C0C29AFE
:1005600001C0C19A6730710508F042C0FB01E65D29
:10057000FF4F0C941008AE9A3BC0AD9A39C0AC9AAC
:1005800037C0AB9A35C0AA9A33C0A99A31C0A89A8D
:100590002FC02F6725BB2BB327782BBB28B3287E12
:1005A00028BB8130910561F024F4892B61F4DE9A37
:1005B0000AC08230910531F0039729F4DB9A03C019
:1005C000DC9A01C0DD9A6730710590F4FB01EF5CA5
:1005D000FF4F0C941008AE980BC0AD9809C0AC98B2
:1005E00007C0AB9805C0AA9803C0A99801C0A898F5
:1005F00064E170E080E090E00E945700DF9A6AE0DA
:1006000070E080E090E00E945700DF9885B380782A
:1006100085BB8BB387788BBB88B3887E88BB64E649
:1006200070E080E090E00C9457000F931F93CF93FD
:10063000DF9300E010E0C0E0D0E040E0BE01C80180
:100640000E948B022196C730D105B9F70F5F1F4F6B
:100650000430110581F784E0ECEBF0E0DF011D923E
:100660008A95E9F7DF91CF911F910F9108956F92CD
:100670007F928F929F92AF92BF92CF92DF92EF9232
:10068000FF920F931F93CF93DF93CDB7DEB72997D8
:100690000FB6F894DEBF0FBECDBF7C016B01809119
:1006A000BA009091BB00843F914034F00E94150342
:1006B0001092BB001092BA008E010A5F1F4F84E0B7
:1006C000D8011D928A95E9F7FE0131963F01C601D6
:1006D00009968D36910520F08DE289838A8312C0B8
:1006E000DF92CF9283EB90E09F938F931F9283E0F2
:1006F0008F93FF93EF930E9425080FB6F894DEBF07
:100700000FBECDBFC70109968D36910520F08DE251
:100710008B838C8314C0FF92EF9283EB90E09F93C6
:100720008F931F9283E08F93CE0103969F938F93B5
:100730000E9425080FB6F894DEBF0FBECDBF8CEB2C
:10074000A82E80E0B82EC12CD12C88248394912C23
:10075000D301ED913D01ED52ED3028F4F0E0EF5979
:10076000FF4F808101C080E0F8018083E12CF12CF3
:10077000D8014C9150E094010E2C02C0220F331F7F
:100780000A94E2F742235323F501808190E082230B
:1007900093238417950714F441E004C048175907C0
:1007A0002CF440E0B701C6010E948B02FFEFEF1A64
:1007B000FF0A27E0E216F104D9F68FEFC81AD80A2B
:1007C0000F5F1F4F9FEFA91AB90AA4E0CA16D10400
:1007D00009F0BECF8E819F81A885B9858093BC002A
:1007E0009093BD00A093BE00B093BF0068EE73E08D
:1007F00080E090E00E94570029960FB6F894DEBF83
:100800000FBECDBFDF91CF911F910F91FF90EF9061
:10081000DF90CF90BF90AF909F908F907F906F9020
:100820000895806487B9369A3699FECF84B195B120
:1008300008952F923F924F925F926F927F928F9284
:100840009F92AF92BF92CF92DF92EF92FF920F935F
:100850001F93CF93DF9300D01F92CDB7DEB7BC01BB
:100860004D968F34910510F069E170E0072E000C71
:10087000880B990B0E94F5062DEC3CEC4CE45EEBEA
:100880000E94810720E030E04BE653E40E945806C6
:1008900020E030E040E450E40E9481070E94C4065A
:1008A0001B011092C2001092C10085E08093C0002D
:1008B0002BE42983C12CD12C760154EF852E53E0F3
:1008C000952EA12CB12C39813CBF68EC70E080E002
:1008D00090E00E94570080E00E9411048C0182E0A9
:1008E0000E9411049801DC010E9416082B013C01B2
:1008F000CD0196958795969587959B838A83A8EEDB
:10090000B3E00E941608A50194010E94EE0722168A
:100910003306F8F48091C0008CBF6091C0007091E4
:10092000C1008091C2000F900F900F90DF91CF9186
:100930001F910F91FF90EF90DF90CF90BF90AF90FD
:100940009F908F907F906F905F904F903F902F90EF
:1009500008952A813B81293C3105E0F6C414D50471
:10096000E604F70428F439813093C0007301620172
:100970008091C1009091C2002A813B818217930728
:1009800020F43093C2002093C10039813B5F39834A
:100990003F3A09F098CFBECF2F923F924F925F928D
:1009A0006F927F928F929F92AF92BF92CF92DF927F
:1009B000EF92FF920F931F93CF93DF9300D000D05D
:1009C00000D0CDB7DEB78D838B015C834B83CB0129
:1009D0004D968F34910510F069E170E0072E000C00
:1009E000880B990B0E94F5062DEC3CEC4CE45EEB79
:1009F0000E94810720E030E04BE653E40E94580655
:100A000020E030E040E450E40E9481070E94C406E8
:100A10007A83698381E08E83C12CD12C7601212CCD
:100A2000312C8B819C81281639060CF05AC080E04D
:100A30000E9411044C0182E00E9411045C018D812E
:100A40008650843A88F59401D5010E9416082B013E
:100A50003C016C157D058E059F0520F49E8181E08B
:100A600098279E839E819923C9F09401A8EEB3E054
:100A70000E94160824EF33E040E050E00E94EE07A9
:100A800089819A812817390748F490E2A91693E0E2
:100A9000B90620F48D818F5F8D8303C09D819150B5
:100AA0009D837301620111C0C8010E941904609303
:100AB000C0007093C1008093C2008091C1009091EA
:100AC000C200089710F41CBE0EC08D818CBF68EC6C
:100AD00070E080E090E00E9457009FEF291A390AE9
:100AE000A0CF82E38CBF26960FB6F894DEBF0FBE70
:100AF000CDBFDF91CF911F910F91FF90EF90DF90CD
:100B0000CF90BF90AF909F908F907F906F905F90AD
:100B10004F903F902F9008951CBE64EF71E080E0ED
:100B200090E00E94570080E00E9411049C01A8EE12
:100B3000B3E00E94160824EF33E040E050E00E944A
:100B4000EE07C9010895CF93DF93CDB7DEB710BC90
:100B500089E189B988E18AB986E880BD8EE690E0AE
:100B60000E946A008AB3886F8ABB87B38F6187BB94
:100B700084B38FEF84BB81B381BB86B1876886B9AC
:100B800083B7896683BF1CBE1BBA18BA15BA78949E
:100B900085E00E94D901082F880F110BC8010E941F
:100BA0001904F62E48EF51E1B8018F2D0E94CC04B4
:100BB0000E948C058C369240A8F30E94150382E8AF
:100BC000C82E80E0D82E93E6592E8DB69EB68DB7EE
:100BD0009EB7845691090FB6F8949EBF0FBE8DBF85
:100BE0000DB71EB70F5F1F4FD80124E61D922A953F
:100BF000E9F786E00E94D901782E85E00E94D901AC
:100C0000682EE82E880FFF08C7010E941904462E9F
:100C1000272E382E0E948C058D369240F8F0A72C96
:100C2000072C000CBB08B701C5010E943703FF92D7
:100C30006F92BF927F92DF92CF921F925F921F932B
:100C40000F930E942508C8010E946A008DB79EB7C5
:100C50000A960FB6F8949EBF0FBE8DBFC1010897CC
:100C6000D0F41092600088B7846088BF89B7846030
:100C700089BF1DBC1CBC8EB585608EBD8091600097
:100C8000811107C085B78F7485BF85B7806485BF24
:100C9000F5CF1EBC06C048EF51E1B701842D0E947C
:100CA000CC040FB6F8949EBE0FBE8DBE8ECF5058AA
:100CB000BB27AA270E946F060C9447070E9439079A
:100CC00038F00E94400720F039F49F3F19F426F4D1
:100CD0000C9436070EF4E095E7FB0C943007E92FEF
:100CE0000E94580758F3BA176207730784079507DD
:100CF00020F079F4A6F50C947A070EF4E0950B2E0B
:100D0000BA2FA02D0B01B90190010C01CA01A0015D
:100D10001124FF27591B99F0593F50F4503E68F1B8
:100D20001A16F040A22F232F342F4427585FF3CFF9
:100D3000469537952795A795F0405395C9F77EF4CA
:100D40001F16BA0B620B730B840BBAF09150A1F013
:100D5000FF0FBB1F661F771F881FC2F70EC0BA0F99
:100D6000621F731F841F48F4879577956795B79521
:100D7000F7959E3F08F0B0CF9395880F08F099271C
:100D8000EE0F9795879508950E94600788F09F570A
:100D900098F0B92F9927B751B0F0E1F0660F771F9F
:100DA000881F991F1AF0BA95C9F714C0B13091F095
:100DB0000E947A07B1E008950C947A07672F782F84
:100DC0008827B85F39F0B93FCCF38695779567955A
:100DD000B395D9F73EF490958095709561957F4FC6
:100DE0008F4F9F4F0895E89409C097FB3EF490956C
:100DF0008095709561957F4F8F4F9F4F9923A9F0F4
:100E0000F92F96E9BB279395F69587957795679582
:100E1000B795F111F8CFFAF4BB0F11F460FF1BC0C6
:100E20006F5F7F4F8F4F9F4F16C0882311F096E959
:100E300011C0772321F09EE8872F762F05C0662307
:100E400071F096E8862F70E060E02AF09A95660FC0
:100E5000771F881FDAF7880F9695879597F9089579
:100E600097F99F6780E870E060E008959FEF80EC5D
:100E7000089500240A941616170618060906089500
:100E800000240A9412161306140605060895092E66
:100E90000394000C11F4882352F0BB0F40F4BF2BD5
:100EA00011F460FF04C06F5F7F4F8F4F9F4F089515
:100EB00057FD9058440F551F59F05F3F71F047950B
:100EC000880F97FB991F61F09F3F79F087950895F0
:100ED000121613061406551FF2CF4695F1DF08C00F
:100EE000161617061806991FF1CF8695710561052C
:100EF00008940895E894BB2766277727CB0197F9D4
:100F000008950E9494070C9447070E94390738F00F
:100F10000E94400720F0952311F00C9430070C94A8
:100F2000360711240C947B070E94580770F3959F95
:100F3000C1F3950F50E0551F629FF001729FBB27D0
:100F4000F00DB11D639FAA27F00DB11DAA1F649F6C
:100F50006627B00DA11D661F829F2227B00DA11D1F
:100F6000621F739FB00DA11D621F839FA00D611DA5
:100F7000221F749F3327A00D611D231F849F600DC6
:100F8000211D822F762F6A2F11249F5750409AF0EF
:100F9000F1F088234AF0EE0FFF1FBB1F661F771F7B
:100FA000881F91505040A9F79E3F510580F00C9446
:100FB00030070C947B075F3FE4F3983ED4F38695AB
:100FC00077956795B795F795E7959F5FC1F7FE2BE6
:100FD000880F911D9695879597F90895A1E21A2E8D
:100FE000AA1BBB1BFD010DC0AA1FBB1FEE1FFF1FCD
:100FF000A217B307E407F50720F0A21BB30BE40B1D
:10100000F50B661F771F881F991F1A9469F7609563
:101010007095809590959B01AC01BD01CF0108951D
:10102000EE0FFF1F0590F491E02D0994A29FB001EF
:10103000B39FC001A39F700D811D1124911DB29F0C
:10104000700D811D1124911D0895AEE0B0E0EBE21A
:10105000F8E00C94F40A0D891E898F89988D26E09A
:101060002C831A83098397FF02C080E090E80197E0
:101070009E838D83AE01455E5F4F698D7A8DCE0173
:1010800001960E9455084D815E8157FD0AC02F814F
:101090003885421753070CF49A01F801E20FF31F49
:1010A00010822E96E4E00C94100BABE0B0E0EBE580
:1010B000F8E00C94E60A6C017B018A01FC011782BE
:1010C0001682838181FFCCC1CE0101963C01F601DD
:1010D0009381F70193FD859193FF81917F0188238F
:1010E00009F4BAC1853239F493FD859193FF81915A
:1010F0007F01853229F4B60190E00E944C0AE7CFC7
:10110000912C212C312CFFE1F315D8F08B3279F0A2
:1011100038F4803279F08332A1F4232D20611DC090
:101120008D3261F0803369F4232D216016C0832D48
:101130008260382EE32DE4603E2E2AC0F32DF86045
:101140001DC037FC2DC020ED280F2A3040F08E3214
:10115000B9F436FC81C1232D2064322E19C036FE2D
:1011600006C08AE0989E200D1124922E11C0EAE05C
:101170002E9E200D1124222EF32DF0623F2E08C04A
:101180008C3621F4832D8068382E02C0883641F4D5
:10119000F70193FD859193FF81917F018111B3CF79
:1011A000982F9F7D9554933028F40C5F1F4F9FE339
:1011B00099830DC0833631F0833771F0833509F0A0
:1011C00059C021C0F801808189830E5F1F4F882498
:1011D0008394912C530113C02801F2E04F0E511C4F
:1011E000F801A080B18036FE03C0692D70E002C016
:1011F0006FEF7FEFC5010E94410A4C018201F32D80
:10120000FF773F2E16C0280122E0420E511CF80144
:10121000A080B18036FE03C0692D70E002C06FEF80
:101220007FEFC5010E94360A4C01F32DF0683F2E76
:10123000820133FC1BC0822D90E088169906B0F421
:10124000B60180E290E00E944C0A2A94F4CFF501A6
:1012500037FC859137FE81915F01B60190E00E94D5
:101260004C0A21102A9421E0821A910881149104D9
:1012700071F7E8C0843611F0893641F5F80137FE80
:1012800007C060817181828193810C5F1F4F08C00C
:1012900060817181072E000C880B990B0E5F1F4F28
:1012A000F32DFF763F2E97FF09C09095809570959E
:1012B00061957F4F8F4F9F4FF0683F2E2AE030E0BF
:1012C000A3010E94880A882E861845C0853731F40C
:1012D000232D2F7EB22E2AE030E025C0932D997F5A
:1012E000B92E8F36C1F018F4883579F0B5C0803743
:1012F00019F0883721F0B0C0E92FE061BE2EB4FEAE
:101300000DC0FB2DF460BF2E09C034FE0AC0292F8A
:101310002660B22E06C028E030E005C020E130E0B3
:1013200002C020E132E0F801B7FE07C060817181A0
:10133000828193810C5F1F4F06C06081718180E0C4
:1013400090E00E5F1F4FA3010E94880A882E861826
:10135000FB2DFF773F2E36FE0DC0232D2E7FA22EB4
:10136000891458F434FE0BC032FC09C0832D8E7EE4
:10137000A82E05C0B82CA32C03C0B82C01C0B92CD2
:10138000A4FE0FC0FE01E80DF11D8081803321F421
:101390009A2D997EA92E09C0A2FE06C0B394B394DB
:1013A00004C08A2D867809F0B394A3FC11C0A0FE76
:1013B00006C0B21488F4280C922C9B180EC0B214EC
:1013C00060F4B60180E290E00E944C0AB394F7CF3B
:1013D000B21418F42B1802C0982C212CA4FE10C0B3
:1013E000B60180E390E00E944C0AA2FE17C0A1FC67
:1013F00003C088E790E002C088E590E0B6010CC029
:101400008A2D867859F0A1FE02C08BE201C080E2ED
:10141000A7FC8DE2B60190E00E944C0A891438F4D2
:10142000B60180E390E00E944C0A9A94F7CF8A9428
:10143000F301E80DF11D8081B60190E00E944C0A95
:101440008110F5CF222009F442CEB60180E290E06F
:101450000E944C0A2A94F6CFF6018681978102C039
:101460008FEF9FEF2B96E2E10C94020BFC010590AD
:10147000615070400110D8F7809590958E0F9F1F96
:101480000895FC016150704001900110D8F78095DB
:1014900090958E0F9F1F08950F931F93CF93DF9307
:1014A000FB01238121FD03C08FEF9FEF2CC022FFA2
:1014B00016C046815781248135814217530744F471
:1014C000A081B1819D012F5F3F4F318320838C9399
:1014D000268137812F5F3F4F3783268314C08B01CE
:1014E000EC01FB010084F185E02D0995892BE1F6E3
:1014F000D80116968D919C911797019617969C93FB
:101500008E931697CE01DF91CF911F910F91089581
:10151000FA01AA27283051F1203181F1E8946F9324
:101520006E7F6E5F7F4F8F4F9F4FAF4FB1E03ED0CA
:10153000B4E03CD0670F781F891F9A1FA11D680F68
:10154000791F8A1F911DA11D6A0F711D811D911D9B
:10155000A11D20D009F468943F912AE0269F112410
:101560003019305D3193DEF6CF010895462F477074
:10157000405D4193B3E00FD0C9F7F6CF462F4F70CF
:10158000405D4A3318F0495D31FD4052419302D02D
:10159000A9F7EACFB4E0A6959795879577956795D3
:1015A000BA95C9F700976105710508959B01AC01D3
:1015B0000A2E06945795479537952795BA95C9F7FA
:1015C000620F731F841F951FA01D08952F923F92D5
:1015D0004F925F926F927F928F929F92AF92BF9243
:1015E000CF92DF92EF92FF920F931F93CF93DF93EF
:1015F000CDB7DEB7CA1BDB0B0FB6F894DEBF0FBE4C
:10160000CDBF09942A88398848885F846E847D8498
:101610008C849B84AA84B984C884DF80EE80FD809A
:101620000C811B81AA81B981CE0FD11D0FB6F89410
:0E163000DEBF0FBECDBFED010895F894FFCFD1
:10163E00014000003F065B4F666D7D077F6F417472
:10164E006D656761313620697320616C697665213D
:10165E000A005761737365722054656D706572610F
:10166E00747572203D2564646567094C7566742037
:10167E0054656D70657261747572203D2564646584
:08168E00670A00253264000028
:00000001FF
